{
  "contractName": "Layerx",
  "abi": [
    {
      "constant": true,
      "inputs": [
        {
          "name": "",
          "type": "address"
        }
      ],
      "name": "regCustomer",
      "outputs": [
        {
          "name": "",
          "type": "bool"
        }
      ],
      "payable": false,
      "stateMutability": "view",
      "type": "function"
    },
    {
      "constant": true,
      "inputs": [],
      "name": "name",
      "outputs": [
        {
          "name": "",
          "type": "string"
        }
      ],
      "payable": false,
      "stateMutability": "view",
      "type": "function"
    },
    {
      "constant": true,
      "inputs": [
        {
          "name": "",
          "type": "address"
        }
      ],
      "name": "rewards",
      "outputs": [
        {
          "name": "layerx",
          "type": "uint256"
        },
        {
          "name": "eth",
          "type": "uint256"
        }
      ],
      "payable": false,
      "stateMutability": "view",
      "type": "function"
    },
    {
      "constant": true,
      "inputs": [],
      "name": "UNILAYER",
      "outputs": [
        {
          "name": "",
          "type": "address"
        }
      ],
      "payable": false,
      "stateMutability": "view",
      "type": "function"
    },
    {
      "constant": true,
      "inputs": [],
      "name": "decimals",
      "outputs": [
        {
          "name": "",
          "type": "uint8"
        }
      ],
      "payable": false,
      "stateMutability": "view",
      "type": "function"
    },
    {
      "constant": true,
      "inputs": [
        {
          "name": "",
          "type": "address"
        },
        {
          "name": "",
          "type": "uint256"
        }
      ],
      "name": "_stakes",
      "outputs": [
        {
          "name": "layerLocked",
          "type": "uint256"
        },
        {
          "name": "time",
          "type": "uint256"
        }
      ],
      "payable": false,
      "stateMutability": "view",
      "type": "function"
    },
    {
      "constant": true,
      "inputs": [],
      "name": "owner",
      "outputs": [
        {
          "name": "",
          "type": "address"
        }
      ],
      "payable": false,
      "stateMutability": "view",
      "type": "function"
    },
    {
      "constant": true,
      "inputs": [],
      "name": "symbol",
      "outputs": [
        {
          "name": "",
          "type": "string"
        }
      ],
      "payable": false,
      "stateMutability": "view",
      "type": "function"
    },
    {
      "constant": true,
      "inputs": [],
      "name": "isPaused",
      "outputs": [
        {
          "name": "",
          "type": "bool"
        }
      ],
      "payable": false,
      "stateMutability": "view",
      "type": "function"
    },
    {
      "constant": true,
      "inputs": [
        {
          "name": "",
          "type": "uint256"
        }
      ],
      "name": "customers",
      "outputs": [
        {
          "name": "",
          "type": "address"
        }
      ],
      "payable": false,
      "stateMutability": "view",
      "type": "function"
    },
    {
      "constant": true,
      "inputs": [],
      "name": "totalEthRewards",
      "outputs": [
        {
          "name": "",
          "type": "uint256"
        }
      ],
      "payable": false,
      "stateMutability": "view",
      "type": "function"
    },
    {
      "constant": true,
      "inputs": [],
      "name": "stakePeriod",
      "outputs": [
        {
          "name": "",
          "type": "uint256"
        }
      ],
      "payable": false,
      "stateMutability": "view",
      "type": "function"
    },
    {
      "constant": true,
      "inputs": [
        {
          "name": "",
          "type": "uint256"
        }
      ],
      "name": "stakes",
      "outputs": [
        {
          "name": "start",
          "type": "uint256"
        },
        {
          "name": "end",
          "type": "uint256"
        },
        {
          "name": "layerLockedTotal",
          "type": "uint256"
        },
        {
          "name": "layerxReward",
          "type": "uint256"
        },
        {
          "name": "ethReward",
          "type": "uint256"
        }
      ],
      "payable": false,
      "stateMutability": "view",
      "type": "function"
    },
    {
      "constant": true,
      "inputs": [],
      "name": "stakeCreator",
      "outputs": [
        {
          "name": "",
          "type": "address"
        }
      ],
      "payable": false,
      "stateMutability": "view",
      "type": "function"
    },
    {
      "constant": false,
      "inputs": [
        {
          "name": "_newOwner",
          "type": "address"
        }
      ],
      "name": "transferOwnership",
      "outputs": [],
      "payable": false,
      "stateMutability": "nonpayable",
      "type": "function"
    },
    {
      "inputs": [
        {
          "name": "_owner",
          "type": "address"
        },
        {
          "name": "layer_token",
          "type": "address"
        }
      ],
      "payable": false,
      "stateMutability": "nonpayable",
      "type": "constructor"
    },
    {
      "payable": true,
      "stateMutability": "payable",
      "type": "fallback"
    },
    {
      "anonymous": false,
      "inputs": [
        {
          "indexed": false,
          "name": "holder",
          "type": "address"
        },
        {
          "indexed": false,
          "name": "amountLocked",
          "type": "uint256"
        },
        {
          "indexed": false,
          "name": "timeLocked",
          "type": "uint256"
        },
        {
          "indexed": false,
          "name": "stakeNum",
          "type": "uint256"
        }
      ],
      "name": "logLockedTokens",
      "type": "event"
    },
    {
      "anonymous": false,
      "inputs": [
        {
          "indexed": false,
          "name": "holder",
          "type": "address"
        },
        {
          "indexed": false,
          "name": "amountUnlocked",
          "type": "uint256"
        },
        {
          "indexed": false,
          "name": "timeUnlocked",
          "type": "uint256"
        },
        {
          "indexed": false,
          "name": "stakeNum",
          "type": "uint256"
        }
      ],
      "name": "logUnlockedTokens",
      "type": "event"
    },
    {
      "anonymous": false,
      "inputs": [
        {
          "indexed": false,
          "name": "holder",
          "type": "address"
        },
        {
          "indexed": false,
          "name": "layerx",
          "type": "uint256"
        },
        {
          "indexed": false,
          "name": "eth",
          "type": "uint256"
        },
        {
          "indexed": false,
          "name": "time",
          "type": "uint256"
        }
      ],
      "name": "logWithdraw",
      "type": "event"
    },
    {
      "anonymous": false,
      "inputs": [
        {
          "indexed": false,
          "name": "stakeOwner",
          "type": "address"
        },
        {
          "indexed": false,
          "name": "stakeNum",
          "type": "uint256"
        },
        {
          "indexed": false,
          "name": "timeClosed",
          "type": "uint256"
        }
      ],
      "name": "logCloseStake",
      "type": "event"
    },
    {
      "anonymous": false,
      "inputs": [
        {
          "indexed": true,
          "name": "_from",
          "type": "address"
        },
        {
          "indexed": true,
          "name": "_to",
          "type": "address"
        }
      ],
      "name": "OwnershipTransferred",
      "type": "event"
    },
    {
      "anonymous": false,
      "inputs": [
        {
          "indexed": true,
          "name": "from",
          "type": "address"
        },
        {
          "indexed": true,
          "name": "to",
          "type": "address"
        },
        {
          "indexed": false,
          "name": "value",
          "type": "uint256"
        }
      ],
      "name": "Transfer",
      "type": "event"
    },
    {
      "anonymous": false,
      "inputs": [
        {
          "indexed": true,
          "name": "owner",
          "type": "address"
        },
        {
          "indexed": true,
          "name": "spender",
          "type": "address"
        },
        {
          "indexed": false,
          "name": "value",
          "type": "uint256"
        }
      ],
      "name": "Approval",
      "type": "event"
    },
    {
      "constant": true,
      "inputs": [
        {
          "name": "holder",
          "type": "address"
        }
      ],
      "name": "getStakesCount",
      "outputs": [
        {
          "name": "",
          "type": "uint256"
        }
      ],
      "payable": false,
      "stateMutability": "view",
      "type": "function"
    },
    {
      "constant": true,
      "inputs": [],
      "name": "totalSupply",
      "outputs": [
        {
          "name": "",
          "type": "uint256"
        }
      ],
      "payable": false,
      "stateMutability": "view",
      "type": "function"
    },
    {
      "constant": true,
      "inputs": [
        {
          "name": "tokenOwner",
          "type": "address"
        }
      ],
      "name": "balanceOf",
      "outputs": [
        {
          "name": "balance",
          "type": "uint256"
        }
      ],
      "payable": false,
      "stateMutability": "view",
      "type": "function"
    },
    {
      "constant": false,
      "inputs": [
        {
          "name": "to",
          "type": "address"
        },
        {
          "name": "tokens",
          "type": "uint256"
        }
      ],
      "name": "transfer",
      "outputs": [
        {
          "name": "success",
          "type": "bool"
        }
      ],
      "payable": false,
      "stateMutability": "nonpayable",
      "type": "function"
    },
    {
      "constant": false,
      "inputs": [
        {
          "name": "spender",
          "type": "address"
        },
        {
          "name": "tokens",
          "type": "uint256"
        }
      ],
      "name": "approve",
      "outputs": [
        {
          "name": "success",
          "type": "bool"
        }
      ],
      "payable": false,
      "stateMutability": "nonpayable",
      "type": "function"
    },
    {
      "constant": false,
      "inputs": [
        {
          "name": "from",
          "type": "address"
        },
        {
          "name": "to",
          "type": "address"
        },
        {
          "name": "tokens",
          "type": "uint256"
        }
      ],
      "name": "transferFrom",
      "outputs": [
        {
          "name": "success",
          "type": "bool"
        }
      ],
      "payable": false,
      "stateMutability": "nonpayable",
      "type": "function"
    },
    {
      "constant": true,
      "inputs": [
        {
          "name": "tokenOwner",
          "type": "address"
        },
        {
          "name": "spender",
          "type": "address"
        }
      ],
      "name": "allowance",
      "outputs": [
        {
          "name": "remaining",
          "type": "uint256"
        }
      ],
      "payable": false,
      "stateMutability": "view",
      "type": "function"
    },
    {
      "constant": false,
      "inputs": [
        {
          "name": "spender",
          "type": "address"
        },
        {
          "name": "tokens",
          "type": "uint256"
        },
        {
          "name": "data",
          "type": "bytes"
        }
      ],
      "name": "approveAndCall",
      "outputs": [
        {
          "name": "success",
          "type": "bool"
        }
      ],
      "payable": false,
      "stateMutability": "nonpayable",
      "type": "function"
    },
    {
      "constant": false,
      "inputs": [
        {
          "name": "value",
          "type": "uint256"
        }
      ],
      "name": "burn",
      "outputs": [],
      "payable": false,
      "stateMutability": "nonpayable",
      "type": "function"
    },
    {
      "constant": false,
      "inputs": [
        {
          "name": "_stakeCreator",
          "type": "address"
        }
      ],
      "name": "setNewStakeCreator",
      "outputs": [],
      "payable": false,
      "stateMutability": "nonpayable",
      "type": "function"
    },
    {
      "constant": false,
      "inputs": [
        {
          "name": "newIsPaused",
          "type": "bool"
        }
      ],
      "name": "setIsPaused",
      "outputs": [],
      "payable": false,
      "stateMutability": "nonpayable",
      "type": "function"
    },
    {
      "constant": false,
      "inputs": [
        {
          "name": "newStakePeriod",
          "type": "uint256"
        }
      ],
      "name": "setStakePeriod",
      "outputs": [],
      "payable": false,
      "stateMutability": "nonpayable",
      "type": "function"
    },
    {
      "constant": false,
      "inputs": [
        {
          "name": "amount",
          "type": "uint256"
        }
      ],
      "name": "lock",
      "outputs": [],
      "payable": false,
      "stateMutability": "nonpayable",
      "type": "function"
    },
    {
      "constant": true,
      "inputs": [
        {
          "name": "account",
          "type": "address"
        }
      ],
      "name": "stakeOf",
      "outputs": [
        {
          "name": "",
          "type": "uint256"
        }
      ],
      "payable": false,
      "stateMutability": "view",
      "type": "function"
    },
    {
      "constant": false,
      "inputs": [],
      "name": "unlock",
      "outputs": [],
      "payable": false,
      "stateMutability": "nonpayable",
      "type": "function"
    },
    {
      "constant": false,
      "inputs": [],
      "name": "closeStake",
      "outputs": [],
      "payable": false,
      "stateMutability": "nonpayable",
      "type": "function"
    },
    {
      "constant": false,
      "inputs": [],
      "name": "withdraw",
      "outputs": [],
      "payable": false,
      "stateMutability": "nonpayable",
      "type": "function"
    },
    {
      "constant": true,
      "inputs": [],
      "name": "getStakesNum",
      "outputs": [
        {
          "name": "",
          "type": "uint256"
        }
      ],
      "payable": false,
      "stateMutability": "view",
      "type": "function"
    },
    {
      "constant": false,
      "inputs": [],
      "name": "close",
      "outputs": [],
      "payable": false,
      "stateMutability": "nonpayable",
      "type": "function"
    }
  ],
  "bytecode": "0x60806040526000600555600060065568017c369f0ff2b0f4006007556000600860146101000a81548160ff0219169083151502179055506104b0600a553480156200004957600080fd5b506040516040806200492b833981018060405260408110156200006b57600080fd5b810190808051906020019092919080519060200190929190505050816000806101000a81548173ffffffffffffffffffffffffffffffffffffffff021916908373ffffffffffffffffffffffffffffffffffffffff1602179055506000809054906101000a900473ffffffffffffffffffffffffffffffffffffffff16600860006101000a81548173ffffffffffffffffffffffffffffffffffffffff021916908373ffffffffffffffffffffffffffffffffffffffff1602179055506040805190810160405280600681526020017f4c415945525800000000000000000000000000000000000000000000000000008152506001908051906020019062000175929190620003ad565b506040805190810160405280600981526020017f554e494c4159455258000000000000000000000000000000000000000000000081525060029080519060200190620001c3929190620003ad565b506012600360006101000a81548160ff021916908360ff160217905550600360009054906101000a900460ff1660ff16600a0a619c4002600481905550600454600f60008060009054906101000a900473ffffffffffffffffffffffffffffffffffffffff1673ffffffffffffffffffffffffffffffffffffffff1673ffffffffffffffffffffffffffffffffffffffff168152602001908152602001600020819055506000809054906101000a900473ffffffffffffffffffffffffffffffffffffffff1673ffffffffffffffffffffffffffffffffffffffff16600073ffffffffffffffffffffffffffffffffffffffff167fddf252ad1be2c89b69c2b068fc378daa952ba7f163c4a11628f55a4df523b3ef6004546040518082815260200191505060405180910390a360a0604051908101604052804281526020016000815260200160008152602001600081526020016000815250600d6000808152602001908152602001600020600082015181600001556020820151816001015560408201518160020155606082015181600301556080820151816004015590505080601160006101000a81548173ffffffffffffffffffffffffffffffffffffffff021916908373ffffffffffffffffffffffffffffffffffffffff16021790555050506200045c565b828054600181600116156101000203166002900490600052602060002090601f016020900481019282601f10620003f057805160ff191683800117855562000421565b8280016001018555821562000421579182015b828111156200042057825182559160200191906001019062000403565b5b50905062000430919062000434565b5090565b6200045991905b80821115620004555760008160009055506001016200043b565b5090565b90565b6144bf806200046c6000396000f3fe6080604052600436106101ac576000357c0100000000000000000000000000000000000000000000000000000000900463ffffffff16806301e0047c146101c957806305e55e221461023257806306fdde03146102835780630700037d14610313578063095ea7b31461037f5780630f49ba04146103f257806318160ddd146104495780631e6b4c6f1461047457806323b872dd146104af578063240976bf14610542578063313ce5671461057f5780633ccfd60b146105b057806342623360146105c757806342966c681461062c57806343d726d614610667578063549b5bfc1461067e578063695d794b146106e357806370a08231146107595780638da5cb5b146107be57806395d89b4114610815578063a69df4b5146108a5578063a9059cbb146108bc578063b187bd261461092f578063c0abda2a1461095e578063c14190da146109d9578063c1699a9914610a04578063cae9ca5114610a2f578063d5a44f8614610b39578063d73531b914610ba4578063dd46706414610bfb578063dd62ed3e14610c36578063ea40450e14610cbb578063f2fde38b14610ce6578063f905e2ce14610d37575b6101c134600554610d4e90919063ffffffff16565b600581905550005b3480156101d557600080fd5b50610218600480360360208110156101ec57600080fd5b81019080803573ffffffffffffffffffffffffffffffffffffffff169060200190929190505050610dd8565b604051808215151515815260200191505060405180910390f35b34801561023e57600080fd5b506102816004803603602081101561025557600080fd5b81019080803573ffffffffffffffffffffffffffffffffffffffff169060200190929190505050610df8565b005b34801561028f57600080fd5b50610298610f3c565b6040518080602001828103825283818151815260200191508051906020019080838360005b838110156102d85780820151818401526020810190506102bd565b50505050905090810190601f1680156103055780820380516001836020036101000a031916815260200191505b509250505060405180910390f35b34801561031f57600080fd5b506103626004803603602081101561033657600080fd5b81019080803573ffffffffffffffffffffffffffffffffffffffff169060200190929190505050610fda565b604051808381526020018281526020019250505060405180910390f35b34801561038b57600080fd5b506103d8600480360360408110156103a257600080fd5b81019080803573ffffffffffffffffffffffffffffffffffffffff16906020019092919080359060200190929190505050610ffe565b604051808215151515815260200191505060405180910390f35b3480156103fe57600080fd5b506104076110f0565b604051808273ffffffffffffffffffffffffffffffffffffffff1673ffffffffffffffffffffffffffffffffffffffff16815260200191505060405180910390f35b34801561045557600080fd5b5061045e611116565b6040518082815260200191505060405180910390f35b34801561048057600080fd5b506104ad6004803603602081101561049757600080fd5b8101908080359060200190929190505050611171565b005b3480156104bb57600080fd5b50610528600480360360608110156104d257600080fd5b81019080803573ffffffffffffffffffffffffffffffffffffffff169060200190929190803573ffffffffffffffffffffffffffffffffffffffff169060200190929190803590602001909291905050506111d6565b604051808215151515815260200191505060405180910390f35b34801561054e57600080fd5b5061057d6004803603602081101561056557600080fd5b81019080803515159060200190929190505050611481565b005b34801561058b57600080fd5b506105946114f9565b604051808260ff1660ff16815260200191505060405180910390f35b3480156105bc57600080fd5b506105c561150c565b005b3480156105d357600080fd5b50610616600480360360208110156105ea57600080fd5b81019080803573ffffffffffffffffffffffffffffffffffffffff169060200190929190505050611bc3565b6040518082815260200191505060405180910390f35b34801561063857600080fd5b506106656004803603602081101561064f57600080fd5b8101908080359060200190929190505050611cf8565b005b34801561067357600080fd5b5061067c612099565b005b34801561068a57600080fd5b506106cd600480360360208110156106a157600080fd5b81019080803573ffffffffffffffffffffffffffffffffffffffff16906020019092919050505061212e565b6040518082815260200191505060405180910390f35b3480156106ef57600080fd5b5061073c6004803603604081101561070657600080fd5b81019080803573ffffffffffffffffffffffffffffffffffffffff1690602001909291908035906020019092919050505061217a565b604051808381526020018281526020019250505060405180910390f35b34801561076557600080fd5b506107a86004803603602081101561077c57600080fd5b81019080803573ffffffffffffffffffffffffffffffffffffffff1690602001909291905050506121ba565b6040518082815260200191505060405180910390f35b3480156107ca57600080fd5b506107d3612203565b604051808273ffffffffffffffffffffffffffffffffffffffff1673ffffffffffffffffffffffffffffffffffffffff16815260200191505060405180910390f35b34801561082157600080fd5b5061082a612228565b6040518080602001828103825283818151815260200191508051906020019080838360005b8381101561086a57808201518184015260208101905061084f565b50505050905090810190601f1680156108975780820380516001836020036101000a031916815260200191505b509250505060405180910390f35b3480156108b157600080fd5b506108ba6122c6565b005b3480156108c857600080fd5b50610915600480360360408110156108df57600080fd5b81019080803573ffffffffffffffffffffffffffffffffffffffff16906020019092919080359060200190929190505050612856565b604051808215151515815260200191505060405180910390f35b34801561093b57600080fd5b506109446129f1565b604051808215151515815260200191505060405180910390f35b34801561096a57600080fd5b506109976004803603602081101561098157600080fd5b8101908080359060200190929190505050612a04565b604051808273ffffffffffffffffffffffffffffffffffffffff1673ffffffffffffffffffffffffffffffffffffffff16815260200191505060405180910390f35b3480156109e557600080fd5b506109ee612a42565b6040518082815260200191505060405180910390f35b348015610a1057600080fd5b50610a19612a48565b6040518082815260200191505060405180910390f35b348015610a3b57600080fd5b50610b1f60048036036060811015610a5257600080fd5b81019080803573ffffffffffffffffffffffffffffffffffffffff1690602001909291908035906020019092919080359060200190640100000000811115610a9957600080fd5b820183602082011115610aab57600080fd5b80359060200191846001830284011164010000000083111715610acd57600080fd5b91908080601f016020809104026020016040519081016040528093929190818152602001838380828437600081840152601f19601f820116905080830192505050505050509192919290505050612a4e565b604051808215151515815260200191505060405180910390f35b348015610b4557600080fd5b50610b7260048036036020811015610b5c57600080fd5b8101908080359060200190929190505050612c9d565b604051808681526020018581526020018481526020018381526020018281526020019550505050505060405180910390f35b348015610bb057600080fd5b50610bb9612cd3565b604051808273ffffffffffffffffffffffffffffffffffffffff1673ffffffffffffffffffffffffffffffffffffffff16815260200191505060405180910390f35b348015610c0757600080fd5b50610c3460048036036020811015610c1e57600080fd5b8101908080359060200190929190505050612cf9565b005b348015610c4257600080fd5b50610ca560048036036040811015610c5957600080fd5b81019080803573ffffffffffffffffffffffffffffffffffffffff169060200190929190803573ffffffffffffffffffffffffffffffffffffffff169060200190929190505050613589565b6040518082815260200191505060405180910390f35b348015610cc757600080fd5b50610cd0613610565b6040518082815260200191505060405180910390f35b348015610cf257600080fd5b50610d3560048036036020811015610d0957600080fd5b81019080803573ffffffffffffffffffffffffffffffffffffffff16906020019092919050505061361d565b005b348015610d4357600080fd5b50610d4c613801565b005b6000808284019050838110151515610dce576040517f08c379a00000000000000000000000000000000000000000000000000000000081526004018080602001828103825260118152602001807f43616c63756c6174696f6e206572726f7200000000000000000000000000000081525060200191505060405180910390fd5b8091505092915050565b600b6020528060005260406000206000915054906101000a900460ff1681565b6000809054906101000a900473ffffffffffffffffffffffffffffffffffffffff1673ffffffffffffffffffffffffffffffffffffffff163373ffffffffffffffffffffffffffffffffffffffff16141515610e5357600080fd5b600073ffffffffffffffffffffffffffffffffffffffff168173ffffffffffffffffffffffffffffffffffffffff1614151515610ef8576040517f08c379a00000000000000000000000000000000000000000000000000000000081526004018080602001828103825260148152602001807f446f206e6f74207573652030206164647265737300000000000000000000000081525060200191505060405180910390fd5b80600860006101000a81548173ffffffffffffffffffffffffffffffffffffffff021916908373ffffffffffffffffffffffffffffffffffffffff16021790555050565b60028054600181600116156101000203166002900480601f016020809104026020016040519081016040528092919081815260200182805460018160011615610100020316600290048015610fd25780601f10610fa757610100808354040283529160200191610fd2565b820191906000526020600020905b815481529060010190602001808311610fb557829003601f168201915b505050505081565b600e6020528060005260406000206000915090508060000154908060010154905082565b600081601060003373ffffffffffffffffffffffffffffffffffffffff1673ffffffffffffffffffffffffffffffffffffffff16815260200190815260200160002060008573ffffffffffffffffffffffffffffffffffffffff1673ffffffffffffffffffffffffffffffffffffffff168152602001908152602001600020819055508273ffffffffffffffffffffffffffffffffffffffff163373ffffffffffffffffffffffffffffffffffffffff167f8c5be1e5ebec7d5bd14f71427d1e84f3dd0314c0f7b2291e5b200ac8c7c3b925846040518082815260200191505060405180910390a36001905092915050565b601160009054906101000a900473ffffffffffffffffffffffffffffffffffffffff1681565b600061116c600f60008073ffffffffffffffffffffffffffffffffffffffff1673ffffffffffffffffffffffffffffffffffffffff16815260200190815260200160002054600454613ec190919063ffffffff16565b905090565b6000809054906101000a900473ffffffffffffffffffffffffffffffffffffffff1673ffffffffffffffffffffffffffffffffffffffff163373ffffffffffffffffffffffffffffffffffffffff161415156111cc57600080fd5b80600a8190555050565b600061122a82600f60008773ffffffffffffffffffffffffffffffffffffffff1673ffffffffffffffffffffffffffffffffffffffff16815260200190815260200160002054613ec190919063ffffffff16565b600f60008673ffffffffffffffffffffffffffffffffffffffff1673ffffffffffffffffffffffffffffffffffffffff168152602001908152602001600020819055506112fc82601060008773ffffffffffffffffffffffffffffffffffffffff1673ffffffffffffffffffffffffffffffffffffffff16815260200190815260200160002060003373ffffffffffffffffffffffffffffffffffffffff1673ffffffffffffffffffffffffffffffffffffffff16815260200190815260200160002054613ec190919063ffffffff16565b601060008673ffffffffffffffffffffffffffffffffffffffff1673ffffffffffffffffffffffffffffffffffffffff16815260200190815260200160002060003373ffffffffffffffffffffffffffffffffffffffff1673ffffffffffffffffffffffffffffffffffffffff168152602001908152602001600020819055506113ce82600f60008673ffffffffffffffffffffffffffffffffffffffff1673ffffffffffffffffffffffffffffffffffffffff16815260200190815260200160002054610d4e90919063ffffffff16565b600f60008573ffffffffffffffffffffffffffffffffffffffff1673ffffffffffffffffffffffffffffffffffffffff168152602001908152602001600020819055508273ffffffffffffffffffffffffffffffffffffffff168473ffffffffffffffffffffffffffffffffffffffff167fddf252ad1be2c89b69c2b068fc378daa952ba7f163c4a11628f55a4df523b3ef846040518082815260200191505060405180910390a3600190509392505050565b6000809054906101000a900473ffffffffffffffffffffffffffffffffffffffff1673ffffffffffffffffffffffffffffffffffffffff163373ffffffffffffffffffffffffffffffffffffffff161415156114dc57600080fd5b80600860146101000a81548160ff02191690831515021790555050565b600360009054906101000a900460ff1681565b60001515600860149054906101000a900460ff1615151415156115bd576040517f08c379a00000000000000000000000000000000000000000000000000000000081526004018080602001828103825260268152602001807f5468697320636f6e74726163742077617320706175736564206279207468652081526020017f6f776e657221000000000000000000000000000000000000000000000000000081525060400191505060405180910390fd5b6115c56143dc565b600e60003373ffffffffffffffffffffffffffffffffffffffff1673ffffffffffffffffffffffffffffffffffffffff16815260200190815260200160002060408051908101604052908160008201548152602001600182015481525050905060008160000151118061163c575060008160200151115b15156116d6576040517f08c379a00000000000000000000000000000000000000000000000000000000081526004018080602001828103825260238152602001807f596f752068617665206e6f20616e79207265776172647320746f20776974686481526020017f726177000000000000000000000000000000000000000000000000000000000081525060400191505060405180910390fd5b8060000151600f60008060009054906101000a900473ffffffffffffffffffffffffffffffffffffffff1673ffffffffffffffffffffffffffffffffffffffff1673ffffffffffffffffffffffffffffffffffffffff16815260200190815260200160002054101515156117b2576040517f08c379a000000000000000000000000000000000000000000000000000000000815260040180806020018281038252601d8152602001807f496e73756666696369656e74206163636f756e742062616c616e63652100000081525060200191505060405180910390fd5b80602001513073ffffffffffffffffffffffffffffffffffffffff16311015151561186b576040517f08c379a00000000000000000000000000000000000000000000000000000000081526004018080602001828103825260288152602001807f496e76616c6964206163636f756e742073746174652c206e6f7420656e6f756781526020017f682066756e64732e00000000000000000000000000000000000000000000000081525060400191505060405180910390fd5b600081600001511115611a77576118ef8160000151600f60008060009054906101000a900473ffffffffffffffffffffffffffffffffffffffff1673ffffffffffffffffffffffffffffffffffffffff1673ffffffffffffffffffffffffffffffffffffffff16815260200190815260200160002054613ec190919063ffffffff16565b600f60008060009054906101000a900473ffffffffffffffffffffffffffffffffffffffff1673ffffffffffffffffffffffffffffffffffffffff1673ffffffffffffffffffffffffffffffffffffffff168152602001908152602001600020819055506119a98160000151600f60003373ffffffffffffffffffffffffffffffffffffffff1673ffffffffffffffffffffffffffffffffffffffff16815260200190815260200160002054610d4e90919063ffffffff16565b600f60003373ffffffffffffffffffffffffffffffffffffffff1673ffffffffffffffffffffffffffffffffffffffff168152602001908152602001600020819055503373ffffffffffffffffffffffffffffffffffffffff166000809054906101000a900473ffffffffffffffffffffffffffffffffffffffff1673ffffffffffffffffffffffffffffffffffffffff167fddf252ad1be2c89b69c2b068fc378daa952ba7f163c4a11628f55a4df523b3ef83600001516040518082815260200191505060405180910390a35b600081602001511115611ad0573373ffffffffffffffffffffffffffffffffffffffff166108fc82602001519081150290604051600060405180830381858888f19350505050158015611ace573d6000803e3d6000fd5b505b7f77ba55cea52637902d444be011a3d69dcdf1cc0e412c38d3f936ae2aad7b013f338260000151836020015142604051808573ffffffffffffffffffffffffffffffffffffffff1673ffffffffffffffffffffffffffffffffffffffff16815260200184815260200183815260200182815260200194505050505060405180910390a16000816000018181525050600081602001818152505080600e60003373ffffffffffffffffffffffffffffffffffffffff1673ffffffffffffffffffffffffffffffffffffffff168152602001908152602001600020600082015181600001556020820151816001015590505050565b600080600c60008473ffffffffffffffffffffffffffffffffffffffff1673ffffffffffffffffffffffffffffffffffffffff16815260200190815260200160002080549050111515611c195760009050611cf3565b600080905060008090505b600c60008573ffffffffffffffffffffffffffffffffffffffff1673ffffffffffffffffffffffffffffffffffffffff16815260200190815260200160002080549050811015611ced57611cde600c60008673ffffffffffffffffffffffffffffffffffffffff1673ffffffffffffffffffffffffffffffffffffffff16815260200190815260200160002082815481101515611cbd57fe5b90600052602060002090600202016000015483610d4e90919063ffffffff16565b91508080600101915050611c24565b50809150505b919050565b6000809054906101000a900473ffffffffffffffffffffffffffffffffffffffff1673ffffffffffffffffffffffffffffffffffffffff163373ffffffffffffffffffffffffffffffffffffffff16141515611d5357600080fd5b600081111515611dcb576040517f08c379a000000000000000000000000000000000000000000000000000000000815260040180806020018281038252600f8152602001807f496e76616c696420416d6f756e742e000000000000000000000000000000000081525060200191505060405180910390fd5b8060045410151515611e45576040517f08c379a00000000000000000000000000000000000000000000000000000000081526004018080602001828103825260168152602001807f496e76616c6964206163636f756e742073746174652e0000000000000000000081525060200191505060405180910390fd5b80600f60008060009054906101000a900473ffffffffffffffffffffffffffffffffffffffff1673ffffffffffffffffffffffffffffffffffffffff1673ffffffffffffffffffffffffffffffffffffffff1681526020019081526020016000205410151515611f1d576040517f08c379a000000000000000000000000000000000000000000000000000000000815260040180806020018281038252601f8152602001807f496e76616c6964206163636f756e742062616c616e6365732073746174652e0081525060200191505060405180910390fd5b611f3281600454613ec190919063ffffffff16565b600481905550611fab81600f60008060009054906101000a900473ffffffffffffffffffffffffffffffffffffffff1673ffffffffffffffffffffffffffffffffffffffff1673ffffffffffffffffffffffffffffffffffffffff16815260200190815260200160002054613ec190919063ffffffff16565b600f60008060009054906101000a900473ffffffffffffffffffffffffffffffffffffffff1673ffffffffffffffffffffffffffffffffffffffff1673ffffffffffffffffffffffffffffffffffffffff16815260200190815260200160002081905550600073ffffffffffffffffffffffffffffffffffffffff166000809054906101000a900473ffffffffffffffffffffffffffffffffffffffff1673ffffffffffffffffffffffffffffffffffffffff167fddf252ad1be2c89b69c2b068fc378daa952ba7f163c4a11628f55a4df523b3ef836040518082815260200191505060405180910390a350565b6000809054906101000a900473ffffffffffffffffffffffffffffffffffffffff1673ffffffffffffffffffffffffffffffffffffffff163373ffffffffffffffffffffffffffffffffffffffff161415156120f457600080fd5b6000809054906101000a900473ffffffffffffffffffffffffffffffffffffffff1673ffffffffffffffffffffffffffffffffffffffff16ff5b6000600c60008373ffffffffffffffffffffffffffffffffffffffff1673ffffffffffffffffffffffffffffffffffffffff168152602001908152602001600020805490509050919050565b600c6020528160005260406000208181548110151561219557fe5b9060005260206000209060020201600091509150508060000154908060010154905082565b6000600f60008373ffffffffffffffffffffffffffffffffffffffff1673ffffffffffffffffffffffffffffffffffffffff168152602001908152602001600020549050919050565b6000809054906101000a900473ffffffffffffffffffffffffffffffffffffffff1681565b60018054600181600116156101000203166002900480601f0160208091040260200160405190810160405280929190818152602001828054600181600116156101000203166002900480156122be5780601f10612293576101008083540402835291602001916122be565b820191906000526020600020905b8154815290600101906020018083116122a157829003601f168201915b505050505081565b60001515600860149054906101000a900460ff161515141515612377576040517f08c379a00000000000000000000000000000000000000000000000000000000081526004018080602001828103825260268152602001807f5468697320636f6e74726163742077617320706175736564206279207468652081526020017f6f776e657221000000000000000000000000000000000000000000000000000081525060400191505060405180910390fd5b600061238233611bc3565b90506000811115156123fc576040517f08c379a000000000000000000000000000000000000000000000000000000000815260040180806020018281038252601e8152602001807f596f7520646f206e6f742068617665206c6f636b656420746f6b656e732e000081525060200191505060405180910390fd5b80601160009054906101000a900473ffffffffffffffffffffffffffffffffffffffff1673ffffffffffffffffffffffffffffffffffffffff166370a08231306040518263ffffffff167c0100000000000000000000000000000000000000000000000000000000028152600401808273ffffffffffffffffffffffffffffffffffffffff1673ffffffffffffffffffffffffffffffffffffffff16815260200191505060206040518083038186803b1580156124b857600080fd5b505afa1580156124cc573d6000803e3d6000fd5b505050506040513d60208110156124e257600080fd5b810190808051906020019092919050505010151515612569576040517f08c379a000000000000000000000000000000000000000000000000000000000815260040180806020018281038252601d8152602001807f496e73756666696369656e74206163636f756e742062616c616e63652100000081525060200191505060405180910390fd5b6125716143f6565b600d6000600654815260200190815260200160002060a060405190810160405290816000820154815260200160018201548152602001600282015481526020016003820154815260200160048201548152505090506125dd828260400151613ec190919063ffffffff16565b81604001818152505080600d600060065481526020019081526020016000206000820151816000015560208201518160010155604082015181600201556060820151816003015560808201518160040155905050601160009054906101000a900473ffffffffffffffffffffffffffffffffffffffff1673ffffffffffffffffffffffffffffffffffffffff1663a9059cbb33846040518363ffffffff167c0100000000000000000000000000000000000000000000000000000000028152600401808373ffffffffffffffffffffffffffffffffffffffff1673ffffffffffffffffffffffffffffffffffffffff16815260200182815260200192505050602060405180830381600087803b1580156126f657600080fd5b505af115801561270a573d6000803e3d6000fd5b505050506040513d602081101561272057600080fd5b810190808051906020019092919050505050600c60003373ffffffffffffffffffffffffffffffffffffffff1673ffffffffffffffffffffffffffffffffffffffff168152602001908152602001600020600061277d9190614426565b6000600b60003373ffffffffffffffffffffffffffffffffffffffff1673ffffffffffffffffffffffffffffffffffffffff16815260200190815260200160002060006101000a81548160ff0219169083151502179055507fe8398b5717d1a2de24585ea2be0e730a9befda350c4f52c7bddeec23d61659ce338342600654604051808573ffffffffffffffffffffffffffffffffffffffff1673ffffffffffffffffffffffffffffffffffffffff16815260200184815260200183815260200182815260200194505050505060405180910390a15050565b60006128aa82600f60003373ffffffffffffffffffffffffffffffffffffffff1673ffffffffffffffffffffffffffffffffffffffff16815260200190815260200160002054613ec190919063ffffffff16565b600f60003373ffffffffffffffffffffffffffffffffffffffff1673ffffffffffffffffffffffffffffffffffffffff1681526020019081526020016000208190555061293f82600f60008673ffffffffffffffffffffffffffffffffffffffff1673ffffffffffffffffffffffffffffffffffffffff16815260200190815260200160002054610d4e90919063ffffffff16565b600f60008573ffffffffffffffffffffffffffffffffffffffff1673ffffffffffffffffffffffffffffffffffffffff168152602001908152602001600020819055508273ffffffffffffffffffffffffffffffffffffffff163373ffffffffffffffffffffffffffffffffffffffff167fddf252ad1be2c89b69c2b068fc378daa952ba7f163c4a11628f55a4df523b3ef846040518082815260200191505060405180910390a36001905092915050565b600860149054906101000a900460ff1681565b600981815481101515612a1357fe5b906000526020600020016000915054906101000a900473ffffffffffffffffffffffffffffffffffffffff1681565b60055481565b600a5481565b600082601060003373ffffffffffffffffffffffffffffffffffffffff1673ffffffffffffffffffffffffffffffffffffffff16815260200190815260200160002060008673ffffffffffffffffffffffffffffffffffffffff1673ffffffffffffffffffffffffffffffffffffffff168152602001908152602001600020819055508373ffffffffffffffffffffffffffffffffffffffff163373ffffffffffffffffffffffffffffffffffffffff167f8c5be1e5ebec7d5bd14f71427d1e84f3dd0314c0f7b2291e5b200ac8c7c3b925856040518082815260200191505060405180910390a38373ffffffffffffffffffffffffffffffffffffffff16638f4ffcb1338530866040518563ffffffff167c0100000000000000000000000000000000000000000000000000000000028152600401808573ffffffffffffffffffffffffffffffffffffffff1673ffffffffffffffffffffffffffffffffffffffff1681526020018481526020018373ffffffffffffffffffffffffffffffffffffffff1673ffffffffffffffffffffffffffffffffffffffff16815260200180602001828103825283818151815260200191508051906020019080838360005b83811015612c2b578082015181840152602081019050612c10565b50505050905090810190601f168015612c585780820380516001836020036101000a031916815260200191505b5095505050505050600060405180830381600087803b158015612c7a57600080fd5b505af1158015612c8e573d6000803e3d6000fd5b50505050600190509392505050565b600d6020528060005260406000206000915090508060000154908060010154908060020154908060030154908060040154905085565b600860009054906101000a900473ffffffffffffffffffffffffffffffffffffffff1681565b60001515600860149054906101000a900460ff161515141515612daa576040517f08c379a00000000000000000000000000000000000000000000000000000000081526004018080602001828103825260268152602001807f5468697320636f6e74726163742077617320706175736564206279207468652081526020017f6f776e657221000000000000000000000000000000000000000000000000000081525060400191505060405180910390fd5b600081111515612e22576040517f08c379a000000000000000000000000000000000000000000000000000000000815260040180806020018281038252601f8152602001807f5061796d656e74206d7573742062652067726561746572207468616e20302e0081525060200191505060405180910390fd5b80601160009054906101000a900473ffffffffffffffffffffffffffffffffffffffff1673ffffffffffffffffffffffffffffffffffffffff166370a08231336040518263ffffffff167c0100000000000000000000000000000000000000000000000000000000028152600401808273ffffffffffffffffffffffffffffffffffffffff1673ffffffffffffffffffffffffffffffffffffffff16815260200191505060206040518083038186803b158015612ede57600080fd5b505afa158015612ef2573d6000803e3d6000fd5b505050506040513d6020811015612f0857600080fd5b810190808051906020019092919050505010151515612fb5576040517f08c379a00000000000000000000000000000000000000000000000000000000081526004018080602001828103825260238152602001807f486f6c64657220646f6573206e6f74206861766520656e6f75676820746f6b6581526020017f6e732e000000000000000000000000000000000000000000000000000000000081525060400191505060405180910390fd5b80601160009054906101000a900473ffffffffffffffffffffffffffffffffffffffff1673ffffffffffffffffffffffffffffffffffffffff1663dd62ed3e33306040518363ffffffff167c0100000000000000000000000000000000000000000000000000000000028152600401808373ffffffffffffffffffffffffffffffffffffffff1673ffffffffffffffffffffffffffffffffffffffff1681526020018273ffffffffffffffffffffffffffffffffffffffff1673ffffffffffffffffffffffffffffffffffffffff1681526020019250505060206040518083038186803b1580156130a557600080fd5b505afa1580156130b9573d6000803e3d6000fd5b505050506040513d60208110156130cf57600080fd5b810190808051906020019092919050505010151515613156576040517f08c379a000000000000000000000000000000000000000000000000000000000815260040180806020018281038252601e8152602001807f43616c6c20417070726f76652066756e6374696f6e2066697273746c792e000081525060200191505060405180910390fd5b601160009054906101000a900473ffffffffffffffffffffffffffffffffffffffff1673ffffffffffffffffffffffffffffffffffffffff166323b872dd3330846040518463ffffffff167c0100000000000000000000000000000000000000000000000000000000028152600401808473ffffffffffffffffffffffffffffffffffffffff1673ffffffffffffffffffffffffffffffffffffffff1681526020018373ffffffffffffffffffffffffffffffffffffffff1673ffffffffffffffffffffffffffffffffffffffff1681526020018281526020019350505050602060405180830381600087803b15801561324f57600080fd5b505af1158015613263573d6000803e3d6000fd5b505050506040513d602081101561327957600080fd5b8101908080519060200190929190505050506132936143f6565b600d6000600654815260200190815260200160002060a060405190810160405290816000820154815260200160018201548152602001600282015481526020016003820154815260200160048201548152505090506132f061444a565b8281600001818152505042816020018181525050600c60003373ffffffffffffffffffffffffffffffffffffffff1673ffffffffffffffffffffffffffffffffffffffff1681526020019081526020016000208190806001815401808255809150509060018203906000526020600020906002020160009091929091909150600082015181600001556020820151816001015550505061339d838360400151610d4e90919063ffffffff16565b82604001818152505081600d600060065481526020019081526020016000206000820151816000015560208201518160010155604082015181600201556060820151816003015560808201518160040155905050600b60003373ffffffffffffffffffffffffffffffffffffffff1673ffffffffffffffffffffffffffffffffffffffff16815260200190815260200160002060009054906101000a900460ff1615156135035760093390806001815401808255809150509060018203906000526020600020016000909192909190916101000a81548173ffffffffffffffffffffffffffffffffffffffff021916908373ffffffffffffffffffffffffffffffffffffffff160217905550506001600b60003373ffffffffffffffffffffffffffffffffffffffff1673ffffffffffffffffffffffffffffffffffffffff16815260200190815260200160002060006101000a81548160ff0219169083151502179055505b7f2e280f6c712ca110f9a35656240ad17ac5bb31d888974d5989971e349dec5de833848360200151600654604051808573ffffffffffffffffffffffffffffffffffffffff1673ffffffffffffffffffffffffffffffffffffffff16815260200184815260200183815260200182815260200194505050505060405180910390a1505050565b6000601060008473ffffffffffffffffffffffffffffffffffffffff1673ffffffffffffffffffffffffffffffffffffffff16815260200190815260200160002060008373ffffffffffffffffffffffffffffffffffffffff1673ffffffffffffffffffffffffffffffffffffffff16815260200190815260200160002054905092915050565b6000600160065401905090565b6000809054906101000a900473ffffffffffffffffffffffffffffffffffffffff1673ffffffffffffffffffffffffffffffffffffffff163373ffffffffffffffffffffffffffffffffffffffff1614151561367857600080fd5b600073ffffffffffffffffffffffffffffffffffffffff168173ffffffffffffffffffffffffffffffffffffffff1614151515613743576040517f08c379a00000000000000000000000000000000000000000000000000000000081526004018080602001828103825260268152602001807f4f776e61626c653a206e6577206f776e657220697320746865207a65726f206181526020017f646472657373000000000000000000000000000000000000000000000000000081525060400191505060405180910390fd5b8073ffffffffffffffffffffffffffffffffffffffff166000809054906101000a900473ffffffffffffffffffffffffffffffffffffffff1673ffffffffffffffffffffffffffffffffffffffff167f8be0079c531659141344cd1fd0a4f28419497f9722a3daafe3b4186f6b6457e060405160405180910390a3806000806101000a81548173ffffffffffffffffffffffffffffffffffffffff021916908373ffffffffffffffffffffffffffffffffffffffff16021790555050565b600860009054906101000a900473ffffffffffffffffffffffffffffffffffffffff1673ffffffffffffffffffffffffffffffffffffffff163373ffffffffffffffffffffffffffffffffffffffff161415156138c6576040517f08c379a000000000000000000000000000000000000000000000000000000000815260040180806020018281038252601d8152602001807f596f752063616e6e6f742063616c6c20746869732066756e6374696f6e00000081525060200191505060405180910390fd5b6138ce6143f6565b600d6000600654815260200190815260200160002060a0604051908101604052908160008201548152602001600182015481526020016002820154815260200160038201548152602001600482015481525050905061393c600a548260000151610d4e90919063ffffffff16565b42101515156139d9576040517f08c379a00000000000000000000000000000000000000000000000000000000081526004018080602001828103825260378152602001807f596f752063616e6e6f742063616c6c20746869732066756e6374696f6e20756e81526020017f74696c207374616b65506572696f64206973206f76657200000000000000000081525060400191505060405180910390fd5b428160200181815250506139fc6005548260800151610d4e90919063ffffffff16565b8160800181815250506000613a4b62015180613a3d600754613a2f86600001518760200151613ec190919063ffffffff16565b613f4c90919063ffffffff16565b613ff390919063ffffffff16565b9050600f60008060009054906101000a900473ffffffffffffffffffffffffffffffffffffffff1673ffffffffffffffffffffffffffffffffffffffff1673ffffffffffffffffffffffffffffffffffffffff16815260200190815260200160002054811115613b1957600f60008060009054906101000a900473ffffffffffffffffffffffffffffffffffffffff1673ffffffffffffffffffffffffffffffffffffffff1673ffffffffffffffffffffffffffffffffffffffff1681526020019081526020016000205490505b8082606001818152505081600d6000600654815260200190815260200160002060008201518160000155602082015181600101556040820151816002015560608201518160030155608082015181600401559050507f0718ec116b04bad68bf69f7c11aac43b1275ac936d1043f0839dc8cd226d91723360065442604051808473ffffffffffffffffffffffffffffffffffffffff1673ffffffffffffffffffffffffffffffffffffffff168152602001838152602001828152602001935050505060405180910390a16000613bf28360200151614086565b905060008090505b600980549050811015613e28576000613c50600983815481101515613c1b57fe5b9060005260206000200160009054906101000a900473ffffffffffffffffffffffffffffffffffffffff168660200151614121565b90506000811115613e1a57613c636143dc565b600e6000600985815481101515613c7657fe5b9060005260206000200160009054906101000a900473ffffffffffffffffffffffffffffffffffffffff1673ffffffffffffffffffffffffffffffffffffffff1673ffffffffffffffffffffffffffffffffffffffff168152602001908152602001600020604080519081016040529081600082015481526020016001820154815250509050613d37613d2485613d168886613f4c90919063ffffffff16565b613ff390919063ffffffff16565b8260000151610d4e90919063ffffffff16565b816000018181525050613d7f613d6c85613d5e896080015186613f4c90919063ffffffff16565b613ff390919063ffffffff16565b8260200151610d4e90919063ffffffff16565b81602001818152505080600e6000600986815481101515613d9c57fe5b9060005260206000200160009054906101000a900473ffffffffffffffffffffffffffffffffffffffff1673ffffffffffffffffffffffffffffffffffffffff1673ffffffffffffffffffffffffffffffffffffffff1681526020019081526020016000206000820151816000015560208201518160010155905050505b508080600101915050613bfa565b5060066000815480929190600101919050555060a0604051908101604052804281526020016000815260200184604001518152602001600081526020016000815250600d6000600654815260200190815260200160002060008201518160000155602082015181600101556040820151816002015560608201518160030155608082015181600401559050506000600581905550505050565b6000828211151515613f3b576040517f08c379a00000000000000000000000000000000000000000000000000000000081526004018080602001828103825260118152602001807f43616c63756c6174696f6e206572726f7200000000000000000000000000000081525060200191505060405180910390fd5b600082840390508091505092915050565b600080831415613f5f5760009050613fed565b60008284029050828482811515613f7257fe5b04141515613fe8576040517f08c379a00000000000000000000000000000000000000000000000000000000081526004018080602001828103825260118152602001807f43616c63756c6174696f6e206572726f7200000000000000000000000000000081525060200191505060405180910390fd5b809150505b92915050565b6000808211151561406c576040517f08c379a00000000000000000000000000000000000000000000000000000000081526004018080602001828103825260118152602001807f43616c63756c6174696f6e206572726f7200000000000000000000000000000081525060200191505060405180910390fd5b6000828481151561407957fe5b0490508091505092915050565b6000806000905060008090505b6009805490508110156141175760008090506140e86009838154811015156140b757fe5b9060005260206000200160009054906101000a900473ffffffffffffffffffffffffffffffffffffffff1686614121565b90506000811115614109576141068184610d4e90919063ffffffff16565b92505b508080600101915050614093565b5080915050919050565b600080600c60008573ffffffffffffffffffffffffffffffffffffffff1673ffffffffffffffffffffffffffffffffffffffff1681526020019081526020016000208054905011151561417757600090506143d6565b60008090506141846143f6565b600d6000600654815260200190815260200160002060a0604051908101604052908160008201548152602001600182015481526020016002820154815260200160038201548152602001600482015481525050905060008090505b600c60008773ffffffffffffffffffffffffffffffffffffffff1673ffffffffffffffffffffffffffffffffffffffff168152602001908152602001600020805490508110156143cf5760008090508260000151600c60008973ffffffffffffffffffffffffffffffffffffffff1673ffffffffffffffffffffffffffffffffffffffff1681526020019081526020016000208381548110151561427f57fe5b90600052602060002090600202016001015410156142b5576142ae836000015187613ec190919063ffffffff16565b9050614328565b614325600c60008973ffffffffffffffffffffffffffffffffffffffff1673ffffffffffffffffffffffffffffffffffffffff1681526020019081526020016000208381548110151561430457fe5b90600052602060002090600202016001015487613ec190919063ffffffff16565b90505b6143bf6143b0620151806143a284600c60008d73ffffffffffffffffffffffffffffffffffffffff1673ffffffffffffffffffffffffffffffffffffffff1681526020019081526020016000208781548110151561438257fe5b906000526020600020906002020160000154613f4c90919063ffffffff16565b613ff390919063ffffffff16565b85610d4e90919063ffffffff16565b93505080806001019150506141df565b5081925050505b92915050565b604080519081016040528060008152602001600081525090565b60a06040519081016040528060008152602001600081526020016000815260200160008152602001600081525090565b50805460008255600202906000526020600020908101906144479190614464565b50565b604080519081016040528060008152602001600081525090565b61449091905b8082111561448c5760008082016000905560018201600090555060020161446a565b5090565b9056fea165627a7a7230582011f9a82ccdadef0ba6180a6259bb7656be5a1c954b87cd21b9aed19795cdda2e0029",
  "source": "pragma solidity ^0.5.0;\r\n\r\n/**\r\n* @title SafeMath\r\n* @dev   Unsigned math operations with safety checks that revert on error\r\n*/\r\nlibrary SafeMath {\r\n    /**\r\n    * @dev Multiplies two unsigned integers, reverts on overflow.\r\n    */\r\n    function mul(uint256 a, uint256 b) internal pure returns (uint256){\r\n        if (a == 0) {\r\n            return 0;\r\n        }\r\n        uint256 c = a * b;\r\n        require(c / a == b,\"Calculation error\");\r\n        return c;\r\n    }\r\n\r\n    /**\r\n    * @dev Integer division of two unsigned integers truncating the quotient, reverts on division by zero.\r\n    */\r\n    function div(uint256 a, uint256 b) internal pure returns (uint256){\r\n        // Solidity only automatically asserts when dividing by 0\r\n        require(b > 0,\"Calculation error\");\r\n        uint256 c = a / b;\r\n        // assert(a == b * c + a % b); // There is no case in which this doesn't hold\r\n        return c;\r\n    }\r\n\r\n    /**\r\n    * @dev Subtracts two unsigned integers, reverts on overflow (i.e. if subtrahend is greater than minuend).\r\n    */\r\n    function sub(uint256 a, uint256 b) internal pure returns (uint256){\r\n        require(b <= a,\"Calculation error\");\r\n        uint256 c = a - b;\r\n        return c;\r\n    }\r\n\r\n    /**\r\n    * @dev Adds two unsigned integers, reverts on overflow.\r\n    */\r\n    function add(uint256 a, uint256 b) internal pure returns (uint256){\r\n        uint256 c = a + b;\r\n        require(c >= a,\"Calculation error\");\r\n        return c;\r\n    }\r\n\r\n    /**\r\n    * @dev Divides two unsigned integers and returns the remainder (unsigned integer modulo),\r\n    * reverts when dividing by zero.\r\n    */\r\n    function mod(uint256 a, uint256 b) internal pure returns (uint256){\r\n        require(b != 0,\"Calculation error\");\r\n        return a % b;\r\n    }\r\n}\r\n\r\n/**\r\n* @title ERC20 interface\r\n* @dev see https://eips.ethereum.org/EIPS/eip-20\r\n*/\r\ninterface IERC20 {\r\n    function totalSupply() external view returns (uint256);\r\n    function balanceOf(address account) external view returns (uint256);\r\n    function transfer(address recipient, uint256 amount) external returns (bool);\r\n    function allowance(address owner, address spender) external view returns (uint256);\r\n    function approve(address spender, uint256 amount) external returns (bool);\r\n    function transferFrom(address sender, address recipient, uint256 amount) external returns (bool);\r\n    event Transfer(address indexed from, address indexed to, uint256 value);\r\n    event Approval(address indexed owner, address indexed spender, uint256 value);\r\n}\r\n\r\ncontract Owned {\r\n    address payable public owner;\r\n\r\n    event OwnershipTransferred(address indexed _from, address indexed _to);\r\n\r\n    modifier onlyOwner {\r\n        require(msg.sender == owner);\r\n        _;\r\n    }\r\n\r\n    function transferOwnership(address payable _newOwner) public onlyOwner {\r\n        require(_newOwner != address(0), \"Ownable: new owner is the zero address\");\r\n        emit OwnershipTransferred(owner, _newOwner);\r\n        owner = _newOwner;\r\n    }\r\n}\r\n\r\ncontract ApproveAndCallFallBack {\r\n    function receiveApproval(address from, uint256 tokens, address token, bytes memory data) public;\r\n}\r\n\r\n/**\r\n* @title Layerx Contract For ERC20 Tokens\r\n* @dev LAYERX tokens as per ERC20 Standards\r\n*/\r\ncontract Layerx is IERC20, Owned {\r\n    using SafeMath for uint256;\r\n\r\n    string public symbol;\r\n    string public  name;\r\n    uint8 public decimals;\r\n    uint _totalSupply;\r\n    uint public totalEthRewards = 0;\r\n    uint stakeNum = 0;\r\n    uint amtByDay = 27397260274000000000;\r\n    address public stakeCreator;\r\n    bool public isPaused = false;\r\n    address[] public customers;\r\n    uint public stakePeriod = 20 minutes;\r\n\r\n    struct Stake {\r\n        uint start;\r\n        uint end;\r\n        uint layerLockedTotal;\r\n        uint layerxReward;\r\n        uint ethReward;\r\n    }\r\n\r\n    struct StakeStruct {\r\n        uint layerLocked;\r\n        uint time;\r\n    }\r\n\r\n    struct Rewards {\r\n        uint layerx;\r\n        uint eth;\r\n    }\r\n\r\n    event logLockedTokens(address holder, uint amountLocked, uint timeLocked, uint stakeNum);\r\n    event logUnlockedTokens(address holder, uint amountUnlocked, uint timeUnlocked, uint stakeNum);\r\n    event logWithdraw(address holder, uint layerx, uint eth, uint time);\r\n    event logCloseStake(address stakeOwner, uint stakeNum, uint timeClosed);\r\n\r\n    modifier paused {\r\n        require(isPaused == false, \"This contract was paused by the owner!\");\r\n        _;\r\n    }\r\n\r\n    modifier exist (uint index) {\r\n        require(index <= stakeNum, 'This stake does not exist.');\r\n        _;\r\n    }\r\n\r\n    mapping (address => bool) public regCustomer;\r\n    mapping (address => StakeStruct[]) public _stakes;\r\n    mapping (uint => Stake) public stakes;\r\n    mapping (address => Rewards) public rewards;\r\n    mapping (address => uint) balances;\r\n    mapping (address => mapping(address => uint)) allowed;\r\n\r\n    IERC20 public UNILAYER;\r\n\r\n    constructor(address payable _owner, address layer_token) public {\r\n        owner = _owner;\r\n        stakeCreator = owner;\r\n        symbol = \"LAYERX\";\r\n        name = \"UNILAYERX\";\r\n        decimals = 18;\r\n        _totalSupply = 40000 * 10**uint(decimals);\r\n        balances[owner] = _totalSupply;\r\n        emit Transfer(address(0), owner, _totalSupply);\r\n        stakes[0] = Stake(now, 0, 0, 0, 0);\r\n        UNILAYER = IERC20(layer_token);\r\n    }\r\n    function getStakesCount(address holder) public view returns(uint) {\r\n        return _stakes[holder].length;\r\n    }\r\n\r\n    /**\r\n     * @dev Total number of tokens in existence.\r\n     */\r\n    function totalSupply() public view returns (uint) {\r\n        return _totalSupply.sub(balances[address(0)]);\r\n    }\r\n\r\n    /**\r\n     * @dev Gets the balance of the specified address.\r\n     * @param tokenOwner The address to query the balance of.\r\n     * @return A uint256 representing the amount owned by the passed address.\r\n     */\r\n    function balanceOf(address tokenOwner) public view returns (uint balance) {\r\n        return balances[tokenOwner];\r\n    }\r\n\r\n    function transfer(address to, uint tokens) public returns (bool success) {\r\n        balances[msg.sender] = balances[msg.sender].sub(tokens);\r\n        balances[to] = balances[to].add(tokens);\r\n        emit Transfer(msg.sender, to, tokens);\r\n        return true;\r\n    }\r\n\r\n    function approve(address spender, uint tokens) public returns (bool success) {\r\n        allowed[msg.sender][spender] = tokens;\r\n        emit Approval(msg.sender, spender, tokens);\r\n        return true;\r\n    }\r\n\r\n    function transferFrom(address from, address to, uint tokens) public returns (bool success) {\r\n        balances[from] = balances[from].sub(tokens);\r\n        allowed[from][msg.sender] = allowed[from][msg.sender].sub(tokens);\r\n        balances[to] = balances[to].add(tokens);\r\n        emit Transfer(from, to, tokens);\r\n        return true;\r\n    }\r\n\r\n    function allowance(address tokenOwner, address spender) public view returns (uint remaining) {\r\n        return allowed[tokenOwner][spender];\r\n    }\r\n\r\n    function approveAndCall(address spender, uint tokens, bytes memory data) public returns (bool success) {\r\n        allowed[msg.sender][spender] = tokens;\r\n        emit Approval(msg.sender, spender, tokens);\r\n        ApproveAndCallFallBack(spender).receiveApproval(msg.sender, tokens, address(this), data);\r\n        return true;\r\n    }\r\n\r\n    /**\r\n     * @dev Burns a specific amount of tokens.\r\n     * @param value The amount of token to be burned.\r\n     */\r\n    function burn(uint256 value) public onlyOwner {\r\n        require(value > 0, \"Invalid Amount.\");\r\n        require(_totalSupply >= value, \"Invalid account state.\");\r\n        require(balances[owner] >= value, \"Invalid account balances state.\");\r\n        _totalSupply = _totalSupply.sub(value);\r\n        balances[owner] = balances[owner].sub(value);\r\n        emit Transfer(owner, address(0), value);\r\n    }\r\n\r\n    /**\r\n     * @dev Set new Stake Creator address.\r\n     * @param _stakeCreator The address of the new Stake Creator.\r\n     */\r\n    function setNewStakeCreator(address _stakeCreator) external onlyOwner {\r\n        require(_stakeCreator != address(0), 'Do not use 0 address');\r\n        stakeCreator = _stakeCreator;\r\n    }\r\n\r\n    /**\r\n     * @dev Set new pause status.\r\n     * @param newIsPaused The pause status: 0 - not paused, 1 - paused.\r\n     */\r\n    function setIsPaused(bool newIsPaused) external onlyOwner {\r\n        isPaused = newIsPaused;\r\n    }\r\n\r\n    /**\r\n     * @dev Set new Stake Period.\r\n     * @param newStakePeriod indicates new stake period, it was 7 days by default.\r\n     */\r\n    function setStakePeriod(uint256 newStakePeriod) external onlyOwner {\r\n        stakePeriod = newStakePeriod;\r\n    }\r\n\r\n    /**\r\n     * @dev Stake LAYER tokens for earning rewards, Tokens will be deducted from message sender account\r\n     * @param amount Amount of LAYER to be staked in the pool\r\n     */\r\n    function lock(uint amount) external paused {\r\n        require(amount > 0, 'Payment must be greater than 0.');\r\n        require(UNILAYER.balanceOf(msg.sender) >= amount, 'Holder does not have enough tokens.');\r\n        require(UNILAYER.allowance(msg.sender, address(this)) >= amount, 'Call Approve function firstly.');\r\n\r\n        UNILAYER.transferFrom(msg.sender, address(this), amount);\r\n\r\n        Stake memory stake = stakes[stakeNum];\r\n        StakeStruct memory newStake;\r\n        newStake.layerLocked = amount;\r\n        newStake.time = block.timestamp;\r\n        _stakes[msg.sender].push(newStake);\r\n\r\n        stake.layerLockedTotal = stake.layerLockedTotal.add(amount);\r\n        stakes[stakeNum] = stake;\r\n\r\n        if(!regCustomer[msg.sender]) {\r\n            customers.push(msg.sender);\r\n            regCustomer[msg.sender] = true;\r\n        }\r\n\r\n        emit logLockedTokens(msg.sender, amount, newStake.time, stakeNum);\r\n    }\r\n\r\n    /**\r\n     * @dev stakeOf Calculate  the total amount staked by account\r\n     * @param account address which tries to unlock all Layers token staked before\r\n     */\r\n    function stakeOf(address account) public view returns (uint256) {\r\n        if (_stakes[account].length <= 0) return 0;\r\n        \r\n        uint256 stake = 0;\r\n\r\n        for (uint i = 0; i < _stakes[account].length; i++) {\r\n            stake = stake.add(uint256(_stakes[account][i].layerLocked));\r\n        }\r\n        \r\n        return stake;\r\n    }\r\n\r\n    /**\r\n     * @dev Withdraw My Staked Tokens from staker pool\r\n     */\r\n    function unlock() external paused {\r\n        uint256 unlockAmount = stakeOf(msg.sender);\r\n\r\n        require(unlockAmount > 0, 'You do not have locked tokens.');\r\n        require(UNILAYER.balanceOf(address(this))  >= unlockAmount, 'Insufficient account balance!');\r\n\r\n        Stake memory stake = stakes[stakeNum];\r\n        stake.layerLockedTotal = stake.layerLockedTotal.sub(unlockAmount);\r\n        stakes[stakeNum] = stake;\r\n\r\n        UNILAYER.transfer(msg.sender, unlockAmount);\r\n        delete _stakes[msg.sender];\r\n        regCustomer[msg.sender] = false;\r\n        \r\n        emit logUnlockedTokens(msg.sender, unlockAmount, block.timestamp, stakeNum);\r\n    }\r\n\r\n    /**\r\n     * @dev Stake Creator finalizes the stake, the stake receives the accumulated ETH as reward and calculates everyone's percentages.\r\n     */\r\n    function closeStake() external {\r\n        require(msg.sender == stakeCreator, 'You cannot call this function');\r\n\r\n        Stake memory stake = stakes[stakeNum];\r\n        require(now >= stake.start.add(stakePeriod), 'You cannot call this function until stakePeriod is over');\r\n\r\n        stake.end = now;\r\n        stake.ethReward = stake.ethReward.add(totalEthRewards);\r\n\r\n        uint amtLayerx = stake.end.sub(stake.start).mul(amtByDay).div(1 days);\r\n        \r\n        if(amtLayerx > balances[owner]) {\r\n            amtLayerx = balances[owner];\r\n        }\r\n        \r\n        stake.layerxReward = amtLayerx;\r\n        stakes[stakeNum] = stake;\r\n        \r\n        emit logCloseStake(msg.sender, stakeNum, block.timestamp);\r\n\r\n        uint256 sumAmountAge = _getSumAmountAge(stake.end);\r\n\r\n        for (uint i = 0; i < customers.length; i++) {\r\n            uint256 _amountAge = _getAmountAge(customers[i], stake.end);\r\n            \r\n            if(_amountAge > 0) {\r\n                Rewards memory rwds = rewards[customers[i]];\r\n                rwds.layerx = rwds.layerx.add(_amountAge.mul(amtLayerx).div(sumAmountAge));\r\n                rwds.eth = rwds.eth.add(_amountAge.mul(stake.ethReward).div(sumAmountAge));\r\n                rewards[customers[i]] = rwds;\r\n            }\r\n        }\r\n        \r\n        stakeNum++;\r\n        stakes[stakeNum] = Stake(now, 0, stake.layerLockedTotal, 0, 0);\r\n        totalEthRewards = 0;\r\n    }\r\n\r\n    function _getAmountAge(address _address, uint256 _now) internal view returns (uint256) {\r\n        if (_stakes[_address].length <= 0) return 0;\r\n        \r\n        uint256 _amountAge = 0;\r\n        Stake memory stake = stakes[stakeNum];\r\n\r\n        for (uint i = 0; i < _stakes[_address].length; i++) {\r\n            uint256 nAmountSeconds = 0;\r\n            \r\n            if(_stakes[_address][i].time < stake.start) {\r\n                nAmountSeconds = _now.sub(stake.start);\r\n            } else {\r\n                nAmountSeconds = _now.sub(_stakes[_address][i].time);\r\n            }\r\n            \r\n            _amountAge = _amountAge.add(_stakes[_address][i].layerLocked.mul(nAmountSeconds).div(1 days));\r\n        }\r\n\r\n        return _amountAge;\r\n    }\r\n\r\n    function _getSumAmountAge(uint256 _now) internal view returns (uint256) {\r\n        uint256 _sumAmountAge = 0;\r\n\r\n        for (uint i = 0; i < customers.length; i++) {\r\n            uint256 _amountAge = 0;\r\n            _amountAge = _getAmountAge(customers[i], _now);\r\n            \r\n            if(_amountAge > 0) {\r\n                _sumAmountAge = _sumAmountAge.add(_amountAge);\r\n            }\r\n        }\r\n\r\n        return _sumAmountAge;\r\n    }\r\n\r\n    /**\r\n     * @dev Withdraw Reward Layerx Tokens and ETH\r\n     */\r\n    function withdraw() external paused {\r\n        Rewards memory rwds = rewards[msg.sender];\r\n\r\n        require((rwds.layerx > 0 || rwds.eth > 0), 'You have no any rewards to withdraw');\r\n        require(balances[owner] >= rwds.layerx, 'Insufficient account balance!');\r\n        require(address(this).balance >= rwds.eth,'Invalid account state, not enough funds.');\r\n\r\n        if(rwds.layerx > 0) {\r\n            balances[owner] = balances[owner].sub(rwds.layerx);\r\n            balances[msg.sender] = balances[msg.sender].add(rwds.layerx);\r\n            \r\n            emit Transfer(owner, msg.sender, rwds.layerx);\r\n        }\r\n\r\n        if(rwds.eth > 0) { \r\n            msg.sender.transfer(rwds.eth);\r\n        }\r\n        \r\n        emit logWithdraw(msg.sender, rwds.layerx, rwds.eth, block.timestamp);\r\n\r\n        rwds.layerx = 0;\r\n        rwds.eth = 0;\r\n        rewards[msg.sender] = rwds;\r\n    }\r\n\r\n    /**\r\n     * @dev Function to get the number of stakes\r\n     * @return number of stakes\r\n     */\r\n    function getStakesNum() external view returns (uint) {\r\n        return stakeNum+1;\r\n    }\r\n\r\n    /**\r\n     * @dev Receive ETH and add value to the accumulated eth for stake\r\n     */\r\n    function() external payable {\r\n        totalEthRewards = totalEthRewards.add(msg.value);\r\n    }\r\n\r\n    function close() external onlyOwner {\r\n        selfdestruct(owner);\r\n    }\r\n    \r\n}\r\n",
  "sourcePath": "/Users/mac/Desktop/blockchain-projects/bc-smart-contracts/staking/contracts/Layerx.sol",
  "compiler": {
    "name": "solc",
    "version": "0.5.0+commit.1d4f565a.Emscripten.clang"
  },
  "schemaVersion": "3.2.0",
  "updatedAt": "2021-01-31T10:34:22.722Z",
  "devdoc": {
    "details": "LAYERX tokens as per ERC20 Standards\r",
    "methods": {
      "balanceOf(address)": {
        "details": "Gets the balance of the specified address.\r",
        "params": {
          "tokenOwner": "The address to query the balance of.\r"
        },
        "return": "A uint256 representing the amount owned by the passed address.\r"
      },
      "burn(uint256)": {
        "details": "Burns a specific amount of tokens.\r",
        "params": {
          "value": "The amount of token to be burned.\r"
        }
      },
      "closeStake()": {
        "details": "Stake Creator finalizes the stake, the stake receives the accumulated ETH as reward and calculates everyone's percentages.\r"
      },
      "getStakesNum()": {
        "details": "Function to get the number of stakes\r",
        "return": "number of stakes\r"
      },
      "lock(uint256)": {
        "details": "Stake LAYER tokens for earning rewards, Tokens will be deducted from message sender account\r",
        "params": {
          "amount": "Amount of LAYER to be staked in the pool\r"
        }
      },
      "setIsPaused(bool)": {
        "details": "Set new pause status.\r",
        "params": {
          "newIsPaused": "The pause status: 0 - not paused, 1 - paused.\r"
        }
      },
      "setNewStakeCreator(address)": {
        "details": "Set new Stake Creator address.\r",
        "params": {
          "_stakeCreator": "The address of the new Stake Creator.\r"
        }
      },
      "setStakePeriod(uint256)": {
        "details": "Set new Stake Period.\r",
        "params": {
          "newStakePeriod": "indicates new stake period, it was 7 days by default.\r"
        }
      },
      "stakeOf(address)": {
        "details": "stakeOf Calculate  the total amount staked by account\r",
        "params": {
          "account": "address which tries to unlock all Layers token staked before\r"
        }
      },
      "totalSupply()": {
        "details": "Total number of tokens in existence.\r"
      },
      "unlock()": {
        "details": "Withdraw My Staked Tokens from staker pool\r"
      },
      "withdraw()": {
        "details": "Withdraw Reward Layerx Tokens and ETH\r"
      }
    },
    "title": "Layerx Contract For ERC20 Tokens\r"
  },
  "userdoc": {
    "methods": {}
  }
}